{
  "_format": "hh-sol-artifact-1",
  "contractName": "WMCServiceManagement",
  "sourceName": "contracts/WMCServiceManagement-v2.sol",
  "abi": [
    {
      "inputs": [
        {
          "internalType": "address",
          "name": "_usdcTokenAddress",
          "type": "address"
        }
      ],
      "stateMutability": "nonpayable",
      "type": "constructor"
    },
    {
      "inputs": [
        {
          "internalType": "uint256",
          "name": "",
          "type": "uint256"
        }
      ],
      "name": "agreements",
      "outputs": [
        {
          "internalType": "address",
          "name": "serviceProvider",
          "type": "address"
        },
        {
          "internalType": "address",
          "name": "servicePayer",
          "type": "address"
        },
        {
          "internalType": "address",
          "name": "arbitrator",
          "type": "address"
        },
        {
          "internalType": "uint256",
          "name": "startDate",
          "type": "uint256"
        },
        {
          "internalType": "uint256",
          "name": "endDate",
          "type": "uint256"
        },
        {
          "internalType": "uint256",
          "name": "amount",
          "type": "uint256"
        },
        {
          "internalType": "enum WMCServiceManagement.Estado",
          "name": "estado",
          "type": "uint8"
        },
        {
          "internalType": "bool",
          "name": "spaAgree",
          "type": "bool"
        },
        {
          "internalType": "bool",
          "name": "sprAgree",
          "type": "bool"
        }
      ],
      "stateMutability": "view",
      "type": "function"
    },
    {
      "inputs": [
        {
          "internalType": "uint256",
          "name": "_id",
          "type": "uint256"
        }
      ],
      "name": "finalizeAutomatically",
      "outputs": [],
      "stateMutability": "nonpayable",
      "type": "function"
    },
    {
      "inputs": [],
      "name": "getCurrentTimestamp",
      "outputs": [
        {
          "internalType": "uint256",
          "name": "",
          "type": "uint256"
        }
      ],
      "stateMutability": "view",
      "type": "function"
    },
    {
      "inputs": [
        {
          "internalType": "address",
          "name": "_serviceProvider",
          "type": "address"
        },
        {
          "internalType": "address",
          "name": "_servicePayer",
          "type": "address"
        },
        {
          "internalType": "address",
          "name": "_arbitrator",
          "type": "address"
        },
        {
          "internalType": "uint256",
          "name": "_startDate",
          "type": "uint256"
        },
        {
          "internalType": "uint256",
          "name": "_endDate",
          "type": "uint256"
        },
        {
          "internalType": "uint256",
          "name": "_amount",
          "type": "uint256"
        }
      ],
      "name": "newAgreement",
      "outputs": [
        {
          "internalType": "uint256",
          "name": "",
          "type": "uint256"
        }
      ],
      "stateMutability": "nonpayable",
      "type": "function"
    },
    {
      "inputs": [
        {
          "internalType": "uint256",
          "name": "_id",
          "type": "uint256"
        },
        {
          "internalType": "bool",
          "name": "inFavorOfProvider",
          "type": "bool"
        }
      ],
      "name": "resolveDispute",
      "outputs": [],
      "stateMutability": "nonpayable",
      "type": "function"
    },
    {
      "inputs": [
        {
          "internalType": "uint256",
          "name": "_id",
          "type": "uint256"
        },
        {
          "internalType": "bool",
          "name": "agree",
          "type": "bool"
        }
      ],
      "name": "setAgreement",
      "outputs": [],
      "stateMutability": "nonpayable",
      "type": "function"
    },
    {
      "inputs": [
        {
          "internalType": "uint256",
          "name": "_id",
          "type": "uint256"
        }
      ],
      "name": "updateState",
      "outputs": [],
      "stateMutability": "nonpayable",
      "type": "function"
    },
    {
      "inputs": [],
      "name": "usdcToken",
      "outputs": [
        {
          "internalType": "contract IERC20",
          "name": "",
          "type": "address"
        }
      ],
      "stateMutability": "view",
      "type": "function"
    },
    {
      "inputs": [
        {
          "internalType": "uint256",
          "name": "",
          "type": "uint256"
        }
      ],
      "name": "validArbiters",
      "outputs": [
        {
          "internalType": "address",
          "name": "",
          "type": "address"
        }
      ],
      "stateMutability": "view",
      "type": "function"
    }
  ],
  "bytecode": "0x60806040523480156200001157600080fd5b506040516200217e3803806200217e8339818101604052810190620000379190620000e8565b806000806101000a81548173ffffffffffffffffffffffffffffffffffffffff021916908373ffffffffffffffffffffffffffffffffffffffff160217905550506200011a565b600080fd5b600073ffffffffffffffffffffffffffffffffffffffff82169050919050565b6000620000b08262000083565b9050919050565b620000c281620000a3565b8114620000ce57600080fd5b50565b600081519050620000e281620000b7565b92915050565b6000602082840312156200010157620001006200007e565b5b60006200011184828501620000d1565b91505092915050565b612054806200012a6000396000f3fe608060405234801561001057600080fd5b50600436106100935760003560e01c806359a9f9181161006657806359a9f9181461010a5780636c9230db1461013a578063bd14de9614610158578063cc8a55e214610190578063db0f8526146101ac57610093565b80630b1b01731461009857806311eac855146100b457806334b25ee2146100d25780633d3e74e6146100ee575b600080fd5b6100b260048036038101906100ad9190611346565b6101dc565b005b6100bc610393565b6040516100c99190611405565b60405180910390f35b6100ec60048036038101906100e79190611346565b6103b7565b005b61010860048036038101906101039190611420565b610766565b005b610124600480360381019061011f9190611420565b610a12565b604051610131919061146e565b60405180910390f35b610142610a51565b60405161014f9190611498565b60405180910390f35b610172600480360381019061016d9190611420565b610a61565b60405161018799989796959493929190611539565b60405180910390f35b6101aa60048036038101906101a59190611420565b610b46565b005b6101c660048036038101906101c191906115f2565b610c76565b6040516101d39190611498565b60405180910390f35b6000600183815481106101f2576101f161167f565b5b906000526020600020906007020190508060010160009054906101000a900473ffffffffffffffffffffffffffffffffffffffff1673ffffffffffffffffffffffffffffffffffffffff163373ffffffffffffffffffffffffffffffffffffffff160361027a57818160060160016101000a81548160ff02191690831515021790555061032e565b8060000160009054906101000a900473ffffffffffffffffffffffffffffffffffffffff1673ffffffffffffffffffffffffffffffffffffffff163373ffffffffffffffffffffffffffffffffffffffff16036102f257818160060160026101000a81548160ff02191690831515021790555061032d565b6040517f08c379a00000000000000000000000000000000000000000000000000000000081526004016103249061170b565b60405180910390fd5b5b8060060160019054906101000a900460ff16158061035b57508060060160029054906101000a900460ff16155b1561038e5760038160060160006101000a81548160ff02191690836005811115610388576103876114b3565b5b02179055505b505050565b60008054906101000a900473ffffffffffffffffffffffffffffffffffffffff1681565b6000600183815481106103cd576103cc61167f565b5b906000526020600020906007020190508060020160009054906101000a900473ffffffffffffffffffffffffffffffffffffffff1673ffffffffffffffffffffffffffffffffffffffff163373ffffffffffffffffffffffffffffffffffffffff161461046f576040517f08c379a00000000000000000000000000000000000000000000000000000000081526004016104669061179d565b60405180910390fd5b60036005811115610483576104826114b3565b5b8160060160009054906101000a900460ff1660058111156104a7576104a66114b3565b5b146104e7576040517f08c379a00000000000000000000000000000000000000000000000000000000081526004016104de90611809565b60405180910390fd5b81156106245760058160060160006101000a81548160ff02191690836005811115610515576105146114b3565b5b021790555060008054906101000a900473ffffffffffffffffffffffffffffffffffffffff1673ffffffffffffffffffffffffffffffffffffffff1663a9059cbb8260000160009054906101000a900473ffffffffffffffffffffffffffffffffffffffff1683600501546040518363ffffffff1660e01b815260040161059d929190611829565b6020604051808303816000875af11580156105bc573d6000803e3d6000fd5b505050506040513d601f19601f820116820180604052508101906105e09190611867565b61061f576040517f08c379a0000000000000000000000000000000000000000000000000000000008152600401610616906118e0565b60405180910390fd5b610757565b60048160060160006101000a81548160ff0219169083600581111561064c5761064b6114b3565b5b021790555060008054906101000a900473ffffffffffffffffffffffffffffffffffffffff1673ffffffffffffffffffffffffffffffffffffffff1663a9059cbb8260010160009054906101000a900473ffffffffffffffffffffffffffffffffffffffff1683600501546040518363ffffffff1660e01b81526004016106d4929190611829565b6020604051808303816000875af11580156106f3573d6000803e3d6000fd5b505050506040513d601f19601f820116820180604052508101906107179190611867565b610756576040517f08c379a000000000000000000000000000000000000000000000000000000000815260040161074d9061194c565b60405180910390fd5b5b60008160050181905550505050565b60006001828154811061077c5761077b61167f565b5b90600052602060002090600702019050600061079742611194565b9050600260058111156107ad576107ac6114b3565b5b8260060160009054906101000a900460ff1660058111156107d1576107d06114b3565b5b14610811576040517f08c379a0000000000000000000000000000000000000000000000000000000008152600401610808906119b8565b60405180910390fd5b62093a8082600401546108249190611a07565b811015610866576040517f08c379a000000000000000000000000000000000000000000000000000000000815260040161085d90611aad565b60405180910390fd5b8160060160019054906101000a900460ff16801561089257508160060160029054906101000a900460ff165b6108d1576040517f08c379a00000000000000000000000000000000000000000000000000000000081526004016108c890611b3f565b60405180910390fd5b60058260060160006101000a81548160ff021916908360058111156108f9576108f86114b3565b5b021790555060008054906101000a900473ffffffffffffffffffffffffffffffffffffffff1673ffffffffffffffffffffffffffffffffffffffff1663a9059cbb8360000160009054906101000a900473ffffffffffffffffffffffffffffffffffffffff1684600501546040518363ffffffff1660e01b8152600401610981929190611829565b6020604051808303816000875af11580156109a0573d6000803e3d6000fd5b505050506040513d601f19601f820116820180604052508101906109c49190611867565b610a03576040517f08c379a00000000000000000000000000000000000000000000000000000000081526004016109fa906118e0565b60405180910390fd5b60008260050181905550505050565b60028181548110610a2257600080fd5b906000526020600020016000915054906101000a900473ffffffffffffffffffffffffffffffffffffffff1681565b6000610a5c42611194565b905090565b60018181548110610a7157600080fd5b90600052602060002090600702016000915090508060000160009054906101000a900473ffffffffffffffffffffffffffffffffffffffff16908060010160009054906101000a900473ffffffffffffffffffffffffffffffffffffffff16908060020160009054906101000a900473ffffffffffffffffffffffffffffffffffffffff16908060030154908060040154908060050154908060060160009054906101000a900460ff16908060060160019054906101000a900460ff16908060060160029054906101000a900460ff16905089565b600060018281548110610b5c57610b5b61167f565b5b906000526020600020906007020190506000610b7742611194565b905060006005811115610b8d57610b8c6114b3565b5b8260060160009054906101000a900460ff166005811115610bb157610bb06114b3565b5b148015610bc2575081600301548110155b15610bf55760018260060160006101000a81548160ff02191690836005811115610bef57610bee6114b3565b5b02179055505b60016005811115610c0957610c086114b3565b5b8260060160009054906101000a900460ff166005811115610c2d57610c2c6114b3565b5b148015610c3e575081600401548110155b15610c715760028260060160006101000a81548160ff02191690836005811115610c6b57610c6a6114b3565b5b02179055505b505050565b600080610c8285611194565b90506000610c8f85611194565b90506000610c9c42611194565b90508873ffffffffffffffffffffffffffffffffffffffff168a73ffffffffffffffffffffffffffffffffffffffff1603610d0c576040517f08c379a0000000000000000000000000000000000000000000000000000000008152600401610d0390611bd1565b60405180910390fd5b80831015610d4f576040517f08c379a0000000000000000000000000000000000000000000000000000000008152600401610d4690611c63565b60405180910390fd5b62093a8081610d5e9190611a07565b831115610da0576040517f08c379a0000000000000000000000000000000000000000000000000000000008152600401610d9790611cf5565b60405180910390fd5b82821015610de3576040517f08c379a0000000000000000000000000000000000000000000000000000000008152600401610dda90611d87565b60405180910390fd5b60008511610e26576040517f08c379a0000000000000000000000000000000000000000000000000000000008152600401610e1d90611e19565b60405180910390fd5b60008054906101000a900473ffffffffffffffffffffffffffffffffffffffff1673ffffffffffffffffffffffffffffffffffffffff166323b872dd3330886040518463ffffffff1660e01b8152600401610e8393929190611e39565b6020604051808303816000875af1925050508015610ebf57506040513d601f19601f82011682018060405250810190610ebc9190611867565b60015b610efe576040517f08c379a0000000000000000000000000000000000000000000000000000000008152600401610ef590611ebc565b60405180910390fd5b80610f3e576040517f08c379a0000000000000000000000000000000000000000000000000000000008152600401610f3590611f28565b60405180910390fd5b50610f48886111b7565b60016040518061012001604052808c73ffffffffffffffffffffffffffffffffffffffff1681526020018b73ffffffffffffffffffffffffffffffffffffffff1681526020018a73ffffffffffffffffffffffffffffffffffffffff16815260200185815260200184815260200187815260200160006005811115610fd057610fcf6114b3565b5b815260200160011515815260200160011515815250908060018154018082558091505060019003906000526020600020906007020160009091909190915060008201518160000160006101000a81548173ffffffffffffffffffffffffffffffffffffffff021916908373ffffffffffffffffffffffffffffffffffffffff16021790555060208201518160010160006101000a81548173ffffffffffffffffffffffffffffffffffffffff021916908373ffffffffffffffffffffffffffffffffffffffff16021790555060408201518160020160006101000a81548173ffffffffffffffffffffffffffffffffffffffff021916908373ffffffffffffffffffffffffffffffffffffffff160217905550606082015181600301556080820151816004015560a0820151816005015560c08201518160060160006101000a81548160ff0219169083600581111561112c5761112b6114b3565b5b021790555060e08201518160060160016101000a81548160ff0219169083151502179055506101008201518160060160026101000a81548160ff0219169083151502179055505050600180805490506111859190611f48565b93505050509695505050505050565b60006201518080836111a69190611fab565b6111b09190611fdc565b9050919050565b6111c08161122b565b611228576002819080600181540180825580915050600190039060005260206000200160009091909190916101000a81548173ffffffffffffffffffffffffffffffffffffffff021916908373ffffffffffffffffffffffffffffffffffffffff1602179055505b50565b600080600090505b6002805490508110156112c8578273ffffffffffffffffffffffffffffffffffffffff166002828154811061126b5761126a61167f565b5b9060005260206000200160009054906101000a900473ffffffffffffffffffffffffffffffffffffffff1673ffffffffffffffffffffffffffffffffffffffff16036112bb5760019150506112ce565b8080600101915050611233565b50600090505b919050565b600080fd5b6000819050919050565b6112eb816112d8565b81146112f657600080fd5b50565b600081359050611308816112e2565b92915050565b60008115159050919050565b6113238161130e565b811461132e57600080fd5b50565b6000813590506113408161131a565b92915050565b6000806040838503121561135d5761135c6112d3565b5b600061136b858286016112f9565b925050602061137c85828601611331565b9150509250929050565b600073ffffffffffffffffffffffffffffffffffffffff82169050919050565b6000819050919050565b60006113cb6113c66113c184611386565b6113a6565b611386565b9050919050565b60006113dd826113b0565b9050919050565b60006113ef826113d2565b9050919050565b6113ff816113e4565b82525050565b600060208201905061141a60008301846113f6565b92915050565b600060208284031215611436576114356112d3565b5b6000611444848285016112f9565b91505092915050565b600061145882611386565b9050919050565b6114688161144d565b82525050565b6000602082019050611483600083018461145f565b92915050565b611492816112d8565b82525050565b60006020820190506114ad6000830184611489565b92915050565b7f4e487b7100000000000000000000000000000000000000000000000000000000600052602160045260246000fd5b600681106114f3576114f26114b3565b5b50565b6000819050611504826114e2565b919050565b6000611514826114f6565b9050919050565b61152481611509565b82525050565b6115338161130e565b82525050565b60006101208201905061154f600083018c61145f565b61155c602083018b61145f565b611569604083018a61145f565b6115766060830189611489565b6115836080830188611489565b61159060a0830187611489565b61159d60c083018661151b565b6115aa60e083018561152a565b6115b861010083018461152a565b9a9950505050505050505050565b6115cf8161144d565b81146115da57600080fd5b50565b6000813590506115ec816115c6565b92915050565b60008060008060008060c0878903121561160f5761160e6112d3565b5b600061161d89828a016115dd565b965050602061162e89828a016115dd565b955050604061163f89828a016115dd565b945050606061165089828a016112f9565b935050608061166189828a016112f9565b92505060a061167289828a016112f9565b9150509295509295509295565b7f4e487b7100000000000000000000000000000000000000000000000000000000600052603260045260246000fd5b600082825260208201905092915050565b7f4e6f206175746f72697a61646f00000000000000000000000000000000000000600082015250565b60006116f5600d836116ae565b9150611700826116bf565b602082019050919050565b60006020820190508181036000830152611724816116e8565b9050919050565b7f536f6c6f20656c206172626974726f20617369676e61646f207075656465207260008201527f65736f6c766572206c6120646973707574610000000000000000000000000000602082015250565b60006117876032836116ae565b91506117928261172b565b604082019050919050565b600060208201905081810360008301526117b68161177a565b9050919050565b7f4e6f2068617920646973707574612070617261207265736f6c76657200000000600082015250565b60006117f3601c836116ae565b91506117fe826117bd565b602082019050919050565b60006020820190508181036000830152611822816117e6565b9050919050565b600060408201905061183e600083018561145f565b61184b6020830184611489565b9392505050565b6000815190506118618161131a565b92915050565b60006020828403121561187d5761187c6112d3565b5b600061188b84828501611852565b91505092915050565b7f5472616e73666572656e63696120616c205350522066616c6c69646100000000600082015250565b60006118ca601c836116ae565b91506118d582611894565b602082019050919050565b600060208201905081810360008301526118f9816118bd565b9050919050565b7f5265656d626f6c736f20616c205350412066616c6c69646f0000000000000000600082015250565b60006119366018836116ae565b915061194182611900565b602082019050919050565b6000602082019050818103600083015261196581611929565b9050919050565b7f456c206163756572646f206e6f206573746120656e2046696e616c697a61646f600082015250565b60006119a26020836116ae565b91506119ad8261196c565b602082019050919050565b600060208201905081810360008301526119d181611995565b9050919050565b7f4e487b7100000000000000000000000000000000000000000000000000000000600052601160045260246000fd5b6000611a12826112d8565b9150611a1d836112d8565b9250828201905080821115611a3557611a346119d8565b5b92915050565b7f4e6f2068612070617361646f20656c20706572696f646f20646520646973707560008201527f7461000000000000000000000000000000000000000000000000000000000000602082015250565b6000611a976022836116ae565b9150611aa282611a3b565b604082019050919050565b60006020820190508181036000830152611ac681611a8a565b9050919050565b7f416d6261732070617274657320646562656e206573746172206465206163756560008201527f72646f0000000000000000000000000000000000000000000000000000000000602082015250565b6000611b296023836116ae565b9150611b3482611acd565b604082019050919050565b60006020820190508181036000830152611b5881611b1c565b9050919050565b7f4c61732077616c6c6574732064652070726f766565646f72207920706167616460008201527f6f72206e6f2070756564656e2073657220696775616c65732e00000000000000602082015250565b6000611bbb6039836116ae565b9150611bc682611b5f565b604082019050919050565b60006020820190508181036000830152611bea81611bae565b9050919050565b7f466563686120646520696e6963696f20646562652073657220686f79206f206d60008201527f61796f7200000000000000000000000000000000000000000000000000000000602082015250565b6000611c4d6024836116ae565b9150611c5882611bf1565b604082019050919050565b60006020820190508181036000830152611c7c81611c40565b9050919050565b7f466563686120646520696e6963696f206e6f20707565646520736572206d617960008201527f6f72206120756e612073656d616e6120646573646520686f7900000000000000602082015250565b6000611cdf6039836116ae565b9150611cea82611c83565b604082019050919050565b60006020820190508181036000830152611d0e81611cd2565b9050919050565b7f46656368612064652066696e206465626520736572206d61796f72206f20696760008201527f75616c2061206c6120646520696e6963696f0000000000000000000000000000602082015250565b6000611d716032836116ae565b9150611d7c82611d15565b604082019050919050565b60006020820190508181036000830152611da081611d64565b9050919050565b7f456c2076616c6f722064656c20736572766963696f206465626520736572206d60008201527f61796f7220612030000000000000000000000000000000000000000000000000602082015250565b6000611e036028836116ae565b9150611e0e82611da7565b604082019050919050565b60006020820190508181036000830152611e3281611df6565b9050919050565b6000606082019050611e4e600083018661145f565b611e5b602083018561145f565b611e686040830184611489565b949350505050565b7f4572726f7220616c207472616e73666572697220555344430000000000000000600082015250565b6000611ea66018836116ae565b9150611eb182611e70565b602082019050919050565b60006020820190508181036000830152611ed581611e99565b9050919050565b7f5472616e73666572656e63696120646520555344432066616c6c696461000000600082015250565b6000611f12601d836116ae565b9150611f1d82611edc565b602082019050919050565b60006020820190508181036000830152611f4181611f05565b9050919050565b6000611f53826112d8565b9150611f5e836112d8565b9250828203905081811115611f7657611f756119d8565b5b92915050565b7f4e487b7100000000000000000000000000000000000000000000000000000000600052601260045260246000fd5b6000611fb6826112d8565b9150611fc1836112d8565b925082611fd157611fd0611f7c565b5b828204905092915050565b6000611fe7826112d8565b9150611ff2836112d8565b9250828202612000816112d8565b91508282048414831517612017576120166119d8565b5b509291505056fea264697066735822122034cdc95c48d92abba4264390d358e84d54407c6b648c76265c74c20c90ca402164736f6c63430008180033",
  "linkReferences": {},
  "deployedLinkReferences": {}
}