{
  "_format": "hh-sol-artifact-1",
  "contractName": "WMCAgreementManagement",
  "sourceName": "contracts/WMCAgreementManagement-nofees-v4.sol",
  "abi": [
    {
      "inputs": [
        {
          "internalType": "address",
          "name": "_usdcTokenAddress",
          "type": "address"
        }
      ],
      "stateMutability": "nonpayable",
      "type": "constructor"
    },
    {
      "inputs": [],
      "name": "AGREEMENTS_PAYER",
      "outputs": [
        {
          "internalType": "address",
          "name": "",
          "type": "address"
        }
      ],
      "stateMutability": "view",
      "type": "function"
    },
    {
      "inputs": [
        {
          "internalType": "address",
          "name": "_arbiter",
          "type": "address"
        }
      ],
      "name": "addValidArbiterIfNotExists",
      "outputs": [],
      "stateMutability": "nonpayable",
      "type": "function"
    },
    {
      "inputs": [
        {
          "internalType": "uint256",
          "name": "",
          "type": "uint256"
        }
      ],
      "name": "agreements",
      "outputs": [
        {
          "internalType": "address",
          "name": "serviceProvider",
          "type": "address"
        },
        {
          "internalType": "address",
          "name": "servicePayer",
          "type": "address"
        },
        {
          "internalType": "address",
          "name": "arbitrator",
          "type": "address"
        },
        {
          "internalType": "uint256",
          "name": "startDate",
          "type": "uint256"
        },
        {
          "internalType": "uint256",
          "name": "endDate",
          "type": "uint256"
        },
        {
          "internalType": "uint256",
          "name": "amount",
          "type": "uint256"
        },
        {
          "internalType": "bool",
          "name": "spaAgree",
          "type": "bool"
        },
        {
          "internalType": "bool",
          "name": "sprAgree",
          "type": "bool"
        },
        {
          "internalType": "enum WMCAgreementManagement.ArbitrationState",
          "name": "arbitrationState",
          "type": "uint8"
        }
      ],
      "stateMutability": "view",
      "type": "function"
    },
    {
      "inputs": [],
      "name": "daoTreasury",
      "outputs": [
        {
          "internalType": "address",
          "name": "",
          "type": "address"
        }
      ],
      "stateMutability": "view",
      "type": "function"
    },
    {
      "inputs": [
        {
          "internalType": "address",
          "name": "_serviceProvider",
          "type": "address"
        },
        {
          "internalType": "address",
          "name": "_servicePayer",
          "type": "address"
        },
        {
          "internalType": "address",
          "name": "_arbitrator",
          "type": "address"
        },
        {
          "internalType": "uint256",
          "name": "_startDate",
          "type": "uint256"
        },
        {
          "internalType": "uint256",
          "name": "_endDate",
          "type": "uint256"
        },
        {
          "internalType": "uint256",
          "name": "_amount",
          "type": "uint256"
        }
      ],
      "name": "newAgreement",
      "outputs": [
        {
          "internalType": "uint256",
          "name": "",
          "type": "uint256"
        }
      ],
      "stateMutability": "nonpayable",
      "type": "function"
    },
    {
      "inputs": [
        {
          "internalType": "uint256[]",
          "name": "agreementIds",
          "type": "uint256[]"
        }
      ],
      "name": "processAgreementsBatch",
      "outputs": [],
      "stateMutability": "nonpayable",
      "type": "function"
    },
    {
      "inputs": [
        {
          "internalType": "uint256",
          "name": "_id",
          "type": "uint256"
        },
        {
          "internalType": "bool",
          "name": "inFavorOfProvider",
          "type": "bool"
        }
      ],
      "name": "resolveDisagreement",
      "outputs": [],
      "stateMutability": "nonpayable",
      "type": "function"
    },
    {
      "inputs": [
        {
          "internalType": "uint256",
          "name": "_id",
          "type": "uint256"
        },
        {
          "internalType": "bool",
          "name": "agree",
          "type": "bool"
        }
      ],
      "name": "setAgreement",
      "outputs": [],
      "stateMutability": "nonpayable",
      "type": "function"
    },
    {
      "inputs": [],
      "name": "usdcToken",
      "outputs": [
        {
          "internalType": "contract IERC20",
          "name": "",
          "type": "address"
        }
      ],
      "stateMutability": "view",
      "type": "function"
    },
    {
      "inputs": [
        {
          "internalType": "uint256",
          "name": "",
          "type": "uint256"
        }
      ],
      "name": "validArbiters",
      "outputs": [
        {
          "internalType": "address",
          "name": "",
          "type": "address"
        }
      ],
      "stateMutability": "view",
      "type": "function"
    }
  ],
  "bytecode": "0x608060405273ac9adcccd19ea5a05e5a5a5f37c8c02dd9a2ce9c600360006101000a81548173ffffffffffffffffffffffffffffffffffffffff021916908373ffffffffffffffffffffffffffffffffffffffff1602179055503480156200006657600080fd5b50604051620023c5380380620023c583398181016040528101906200008c9190620002a2565b806000806101000a81548173ffffffffffffffffffffffffffffffffffffffff021916908373ffffffffffffffffffffffffffffffffffffffff16021790555060027331e331e751e490ef39e8b269399a76f483b2b5af9080600181540180825580915050600190039060005260206000200160009091909190916101000a81548173ffffffffffffffffffffffffffffffffffffffff021916908373ffffffffffffffffffffffffffffffffffffffff1602179055506002733069ebaeca68b5f5e113e0d4fc3155bd0bf4926b9080600181540180825580915050600190039060005260206000200160009091909190916101000a81548173ffffffffffffffffffffffffffffffffffffffff021916908373ffffffffffffffffffffffffffffffffffffffff1602179055506002736c83c41cc7226afb36ee66814cabb952c9e89ec79080600181540180825580915050600190039060005260206000200160009091909190916101000a81548173ffffffffffffffffffffffffffffffffffffffff021916908373ffffffffffffffffffffffffffffffffffffffff16021790555050620002d4565b600080fd5b600073ffffffffffffffffffffffffffffffffffffffff82169050919050565b60006200026a826200023d565b9050919050565b6200027c816200025d565b81146200028857600080fd5b50565b6000815190506200029c8162000271565b92915050565b600060208284031215620002bb57620002ba62000238565b5b6000620002cb848285016200028b565b91505092915050565b6120e180620002e46000396000f3fe608060405234801561001057600080fd5b506004361061009e5760003560e01c80637468f08a116100665780637468f08a1461014757806379022a9f14610163578063bd14de9614610181578063db0f8526146101b9578063e0c37fa4146101e95761009e565b8063019ef97a146100a35780630b1b0173146100c157806311eac855146100dd57806359a9f918146100fb57806370fe58711461012b575b600080fd5b6100ab610205565b6040516100b891906112e1565b60405180910390f35b6100db60048036038101906100d6919061137e565b61021d565b005b6100e5610374565b6040516100f2919061141d565b60405180910390f35b61011560048036038101906101109190611438565b610398565b60405161012291906112e1565b60405180910390f35b6101456004803603810190610140919061137e565b6103d7565b005b610161600480360381019061015c91906115be565b6106d9565b005b61016b610903565b60405161017891906112e1565b60405180910390f35b61019b60048036038101906101969190611438565b610929565b6040516101b09998979695949392919061169c565b60405180910390f35b6101d360048036038101906101ce9190611755565b610a0e565b6040516101e091906117e2565b60405180910390f35b61020360048036038101906101fe91906117fd565b610f86565b005b7356d30ae87f2ab68f3c0d8125bad517774c79c64c81565b6000600183815481106102335761023261182a565b5b906000526020600020906007020190508060010160009054906101000a900473ffffffffffffffffffffffffffffffffffffffff1673ffffffffffffffffffffffffffffffffffffffff163373ffffffffffffffffffffffffffffffffffffffff16036102bb57818160060160006101000a81548160ff02191690831515021790555061036f565b8060000160009054906101000a900473ffffffffffffffffffffffffffffffffffffffff1673ffffffffffffffffffffffffffffffffffffffff163373ffffffffffffffffffffffffffffffffffffffff160361033357818160060160016101000a81548160ff02191690831515021790555061036e565b6040517f08c379a0000000000000000000000000000000000000000000000000000000008152600401610365906118b6565b60405180910390fd5b5b505050565b60008054906101000a900473ffffffffffffffffffffffffffffffffffffffff1681565b600281815481106103a857600080fd5b906000526020600020016000915054906101000a900473ffffffffffffffffffffffffffffffffffffffff1681565b6000600183815481106103ed576103ec61182a565b5b906000526020600020906007020190508060020160009054906101000a900473ffffffffffffffffffffffffffffffffffffffff1673ffffffffffffffffffffffffffffffffffffffff163373ffffffffffffffffffffffffffffffffffffffff161461048f576040517f08c379a000000000000000000000000000000000000000000000000000000000815260040161048690611948565b60405180910390fd5b60008160050154116104d6576040517f08c379a00000000000000000000000000000000000000000000000000000000081526004016104cd906119b4565b60405180910390fd5b81156105d55760028160060160026101000a81548160ff0219169083600281111561050457610503611625565b5b021790555060008054906101000a900473ffffffffffffffffffffffffffffffffffffffff1673ffffffffffffffffffffffffffffffffffffffff1663a9059cbb8260000160009054906101000a900473ffffffffffffffffffffffffffffffffffffffff1683600501546040518363ffffffff1660e01b815260040161058c9291906119d4565b6020604051808303816000875af11580156105ab573d6000803e3d6000fd5b505050506040513d601f19601f820116820180604052508101906105cf9190611a12565b506106ca565b60018160060160026101000a81548160ff021916908360028111156105fd576105fc611625565b5b021790555060008054906101000a900473ffffffffffffffffffffffffffffffffffffffff1673ffffffffffffffffffffffffffffffffffffffff1663a9059cbb8260010160009054906101000a900473ffffffffffffffffffffffffffffffffffffffff1683600501546040518363ffffffff1660e01b81526004016106859291906119d4565b6020604051808303816000875af11580156106a4573d6000803e3d6000fd5b505050506040513d601f19601f820116820180604052508101906106c89190611a12565b505b60008160050181905550505050565b7356d30ae87f2ab68f3c0d8125bad517774c79c64c73ffffffffffffffffffffffffffffffffffffffff163373ffffffffffffffffffffffffffffffffffffffff161461075b576040517f08c379a000000000000000000000000000000000000000000000000000000000815260040161075290611ad7565b60405180910390fd5b60006107664261107d565b905060005b82518110156108fe5760008382815181106107895761078861182a565b5b6020026020010151905060018054905081106107a557506108f1565b6000600182815481106107bb576107ba61182a565b5b90600052602060002090600702019050600081600501541180156107ed57508060060160009054906101000a900460ff165b801561080757508060060160019054906101000a900460ff165b8015610817575080600401548410155b156108ee5760008054906101000a900473ffffffffffffffffffffffffffffffffffffffff1673ffffffffffffffffffffffffffffffffffffffff1663a9059cbb8260000160009054906101000a900473ffffffffffffffffffffffffffffffffffffffff1683600501546040518363ffffffff1660e01b815260040161089f9291906119d4565b6020604051808303816000875af11580156108be573d6000803e3d6000fd5b505050506040513d601f19601f820116820180604052508101906108e29190611a12565b50600081600501819055505b50505b808060010191505061076b565b505050565b600360009054906101000a900473ffffffffffffffffffffffffffffffffffffffff1681565b6001818154811061093957600080fd5b90600052602060002090600702016000915090508060000160009054906101000a900473ffffffffffffffffffffffffffffffffffffffff16908060010160009054906101000a900473ffffffffffffffffffffffffffffffffffffffff16908060020160009054906101000a900473ffffffffffffffffffffffffffffffffffffffff16908060030154908060040154908060050154908060060160009054906101000a900460ff16908060060160019054906101000a900460ff16908060060160029054906101000a900460ff16905089565b600080610a1a8561107d565b90506000610a278561107d565b90506000610a344261107d565b90508873ffffffffffffffffffffffffffffffffffffffff168a73ffffffffffffffffffffffffffffffffffffffff1603610aa4576040517f08c379a0000000000000000000000000000000000000000000000000000000008152600401610a9b90611b69565b60405180910390fd5b80831015610ae7576040517f08c379a0000000000000000000000000000000000000000000000000000000008152600401610ade90611bfb565b60405180910390fd5b82821015610b2a576040517f08c379a0000000000000000000000000000000000000000000000000000000008152600401610b2190611c8d565b60405180910390fd5b600080610b379190611cdc565b8511610b78576040517f08c379a0000000000000000000000000000000000000000000000000000000008152600401610b6f90611d82565b60405180910390fd5b60008054906101000a900473ffffffffffffffffffffffffffffffffffffffff1673ffffffffffffffffffffffffffffffffffffffff166323b872dd3330886040518463ffffffff1660e01b8152600401610bd593929190611da2565b6020604051808303816000875af1158015610bf4573d6000803e3d6000fd5b505050506040513d601f19601f82011682018060405250810190610c189190611a12565b5060016040518061012001604052808c73ffffffffffffffffffffffffffffffffffffffff1681526020018b73ffffffffffffffffffffffffffffffffffffffff1681526020018a73ffffffffffffffffffffffffffffffffffffffff16815260200185815260200184815260200160008089610c959190611dd9565b610c9f9190611dd9565b815260200160011515815260200160011515815260200160006002811115610cca57610cc9611625565b5b815250908060018154018082558091505060019003906000526020600020906007020160009091909190915060008201518160000160006101000a81548173ffffffffffffffffffffffffffffffffffffffff021916908373ffffffffffffffffffffffffffffffffffffffff16021790555060208201518160010160006101000a81548173ffffffffffffffffffffffffffffffffffffffff021916908373ffffffffffffffffffffffffffffffffffffffff16021790555060408201518160020160006101000a81548173ffffffffffffffffffffffffffffffffffffffff021916908373ffffffffffffffffffffffffffffffffffffffff160217905550606082015181600301556080820151816004015560a0820151816005015560c08201518160060160006101000a81548160ff02191690831515021790555060e08201518160060160016101000a81548160ff0219169083151502179055506101008201518160060160026101000a81548160ff02191690836002811115610e5557610e54611625565b5b0217905550505060008054906101000a900473ffffffffffffffffffffffffffffffffffffffff1673ffffffffffffffffffffffffffffffffffffffff1663a9059cbb600360009054906101000a900473ffffffffffffffffffffffffffffffffffffffff1660006040518363ffffffff1660e01b8152600401610eda9291906119d4565b6020604051808303816000875af1158015610ef9573d6000803e3d6000fd5b505050506040513d601f19601f82011682018060405250810190610f1d9190611a12565b610f5c576040517f08c379a0000000000000000000000000000000000000000000000000000000008152600401610f5390611e7f565b60405180910390fd5b610f6660006110a0565b60018080549050610f779190611dd9565b93505050509695505050505050565b610f8f336111f8565b610fce576040517f08c379a0000000000000000000000000000000000000000000000000000000008152600401610fc590611f11565b60405180910390fd5b610fd7816111f8565b15611017576040517f08c379a000000000000000000000000000000000000000000000000000000000815260040161100e90611f7d565b60405180910390fd5b6002819080600181540180825580915050600190039060005260206000200160009091909190916101000a81548173ffffffffffffffffffffffffffffffffffffffff021916908373ffffffffffffffffffffffffffffffffffffffff16021790555050565b600062015180808361108f9190611fcc565b6110999190611ffd565b9050919050565b60006002805490509050600081116110ed576040517f08c379a00000000000000000000000000000000000000000000000000000000081526004016110e49061208b565b60405180910390fd5b600081836110fb9190611fcc565b905060005b828110156111f25760008054906101000a900473ffffffffffffffffffffffffffffffffffffffff1673ffffffffffffffffffffffffffffffffffffffff1663a9059cbb600283815481106111585761115761182a565b5b9060005260206000200160009054906101000a900473ffffffffffffffffffffffffffffffffffffffff16846040518363ffffffff1660e01b81526004016111a19291906119d4565b6020604051808303816000875af11580156111c0573d6000803e3d6000fd5b505050506040513d601f19601f820116820180604052508101906111e49190611a12565b508080600101915050611100565b50505050565b600080600090505b600280549050811015611295578273ffffffffffffffffffffffffffffffffffffffff16600282815481106112385761123761182a565b5b9060005260206000200160009054906101000a900473ffffffffffffffffffffffffffffffffffffffff1673ffffffffffffffffffffffffffffffffffffffff160361128857600191505061129b565b8080600101915050611200565b50600090505b919050565b600073ffffffffffffffffffffffffffffffffffffffff82169050919050565b60006112cb826112a0565b9050919050565b6112db816112c0565b82525050565b60006020820190506112f660008301846112d2565b92915050565b6000604051905090565b600080fd5b600080fd5b6000819050919050565b61132381611310565b811461132e57600080fd5b50565b6000813590506113408161131a565b92915050565b60008115159050919050565b61135b81611346565b811461136657600080fd5b50565b60008135905061137881611352565b92915050565b6000806040838503121561139557611394611306565b5b60006113a385828601611331565b92505060206113b485828601611369565b9150509250929050565b6000819050919050565b60006113e36113de6113d9846112a0565b6113be565b6112a0565b9050919050565b60006113f5826113c8565b9050919050565b6000611407826113ea565b9050919050565b611417816113fc565b82525050565b6000602082019050611432600083018461140e565b92915050565b60006020828403121561144e5761144d611306565b5b600061145c84828501611331565b91505092915050565b600080fd5b6000601f19601f8301169050919050565b7f4e487b7100000000000000000000000000000000000000000000000000000000600052604160045260246000fd5b6114b38261146a565b810181811067ffffffffffffffff821117156114d2576114d161147b565b5b80604052505050565b60006114e56112fc565b90506114f182826114aa565b919050565b600067ffffffffffffffff8211156115115761151061147b565b5b602082029050602081019050919050565b600080fd5b600061153a611535846114f6565b6114db565b9050808382526020820190506020840283018581111561155d5761155c611522565b5b835b8181101561158657806115728882611331565b84526020840193505060208101905061155f565b5050509392505050565b600082601f8301126115a5576115a4611465565b5b81356115b5848260208601611527565b91505092915050565b6000602082840312156115d4576115d3611306565b5b600082013567ffffffffffffffff8111156115f2576115f161130b565b5b6115fe84828501611590565b91505092915050565b61161081611310565b82525050565b61161f81611346565b82525050565b7f4e487b7100000000000000000000000000000000000000000000000000000000600052602160045260246000fd5b6003811061166557611664611625565b5b50565b600081905061167682611654565b919050565b600061168682611668565b9050919050565b6116968161167b565b82525050565b6000610120820190506116b2600083018c6112d2565b6116bf602083018b6112d2565b6116cc604083018a6112d2565b6116d96060830189611607565b6116e66080830188611607565b6116f360a0830187611607565b61170060c0830186611616565b61170d60e0830185611616565b61171b61010083018461168d565b9a9950505050505050505050565b611732816112c0565b811461173d57600080fd5b50565b60008135905061174f81611729565b92915050565b60008060008060008060c0878903121561177257611771611306565b5b600061178089828a01611740565b965050602061179189828a01611740565b95505060406117a289828a01611740565b94505060606117b389828a01611331565b93505060806117c489828a01611331565b92505060a06117d589828a01611331565b9150509295509295509295565b60006020820190506117f76000830184611607565b92915050565b60006020828403121561181357611812611306565b5b600061182184828501611740565b91505092915050565b7f4e487b7100000000000000000000000000000000000000000000000000000000600052603260045260246000fd5b600082825260208201905092915050565b7f4e6f206175746f72697a61646f00000000000000000000000000000000000000600082015250565b60006118a0600d83611859565b91506118ab8261186a565b602082019050919050565b600060208201905081810360008301526118cf81611893565b9050919050565b7f536f6c6f20656c206172626974726f20617369676e61646f207075656465207260008201527f65736f6c7665722e000000000000000000000000000000000000000000000000602082015250565b6000611932602883611859565b915061193d826118d6565b604082019050919050565b6000602082019050818103600083015261196181611925565b9050919050565b7f4163756572646f2079612072657375656c746f2e000000000000000000000000600082015250565b600061199e601483611859565b91506119a982611968565b602082019050919050565b600060208201905081810360008301526119cd81611991565b9050919050565b60006040820190506119e960008301856112d2565b6119f66020830184611607565b9392505050565b600081519050611a0c81611352565b92915050565b600060208284031215611a2857611a27611306565b5b6000611a36848285016119fd565b91505092915050565b7f536f6c6f206c612077616c6c6574206175746f72697a6164612070617261204160008201527f677265656d656e74732050617965722070756564652070726f6365736172207960208201527f207061676172206163756572646f730000000000000000000000000000000000604082015250565b6000611ac1604f83611859565b9150611acc82611a3f565b606082019050919050565b60006020820190508181036000830152611af081611ab4565b9050919050565b7f4c61732077616c6c6574732064652070726f766565646f72207920706167616460008201527f6f72206e6f2070756564656e2073657220696775616c65732e00000000000000602082015250565b6000611b53603983611859565b9150611b5e82611af7565b604082019050919050565b60006020820190508181036000830152611b8281611b46565b9050919050565b7f466563686120646520696e6963696f20646562652073657220686f79206f206d60008201527f61796f7200000000000000000000000000000000000000000000000000000000602082015250565b6000611be5602483611859565b9150611bf082611b89565b604082019050919050565b60006020820190508181036000830152611c1481611bd8565b9050919050565b7f46656368612064652066696e206465626520736572206d61796f72206f20696760008201527f75616c2061206c6120646520696e6963696f0000000000000000000000000000602082015250565b6000611c77603283611859565b9150611c8282611c1b565b604082019050919050565b60006020820190508181036000830152611ca681611c6a565b9050919050565b7f4e487b7100000000000000000000000000000000000000000000000000000000600052601160045260246000fd5b6000611ce782611310565b9150611cf283611310565b9250828201905080821115611d0a57611d09611cad565b5b92915050565b7f4d6f6e746f20696e737566696369656e7465207061726120637562726972206660008201527f6565732e00000000000000000000000000000000000000000000000000000000602082015250565b6000611d6c602483611859565b9150611d7782611d10565b604082019050919050565b60006020820190508181036000830152611d9b81611d5f565b9050919050565b6000606082019050611db760008301866112d2565b611dc460208301856112d2565b611dd16040830184611607565b949350505050565b6000611de482611310565b9150611def83611310565b9250828203905081811115611e0757611e06611cad565b5b92915050565b7f5472616e73666572656e63696120616c207465736f726f2044414f2066616c6c60008201527f6964612e00000000000000000000000000000000000000000000000000000000602082015250565b6000611e69602483611859565b9150611e7482611e0d565b604082019050919050565b60006020820190508181036000830152611e9881611e5c565b9050919050565b7f536f6c6f20756e206172626974726f2076616c69646f2070756564652061677260008201527f65676172206e7565766f73206172626974726f732e0000000000000000000000602082015250565b6000611efb603583611859565b9150611f0682611e9f565b604082019050919050565b60006020820190508181036000830152611f2a81611eee565b9050919050565b7f456c206172626974726f2079612065737461207265676973747261646f2e0000600082015250565b6000611f67601e83611859565b9150611f7282611f31565b602082019050919050565b60006020820190508181036000830152611f9681611f5a565b9050919050565b7f4e487b7100000000000000000000000000000000000000000000000000000000600052601260045260246000fd5b6000611fd782611310565b9150611fe283611310565b925082611ff257611ff1611f9d565b5b828204905092915050565b600061200882611310565b915061201383611310565b925082820261202181611310565b9150828204841483151761203857612037611cad565b5b5092915050565b7f4e6f20686179206172626974726f732076616c69646f732e0000000000000000600082015250565b6000612075601883611859565b91506120808261203f565b602082019050919050565b600060208201905081810360008301526120a481612068565b905091905056fea2646970667358221220e3f9b5d02dd314e9482b63b508536c2ec404ddf5f4b5b9e1d137020283de8c3164736f6c63430008180033",
  "linkReferences": {},
  "deployedLinkReferences": {}
}