{
  "_format": "hh-sol-artifact-1",
  "contractName": "WMCAgreementManagement",
  "sourceName": "contracts/WMCAgreementManagement.sol",
  "abi": [
    {
      "inputs": [
        {
          "internalType": "address",
          "name": "_usdcTokenAddress",
          "type": "address"
        }
      ],
      "stateMutability": "nonpayable",
      "type": "constructor"
    },
    {
      "inputs": [
        {
          "internalType": "address",
          "name": "_arbiter",
          "type": "address"
        }
      ],
      "name": "addValidArbiterIfNotExists",
      "outputs": [],
      "stateMutability": "nonpayable",
      "type": "function"
    },
    {
      "inputs": [
        {
          "internalType": "uint256",
          "name": "",
          "type": "uint256"
        }
      ],
      "name": "agreements",
      "outputs": [
        {
          "internalType": "address",
          "name": "serviceProvider",
          "type": "address"
        },
        {
          "internalType": "address",
          "name": "servicePayer",
          "type": "address"
        },
        {
          "internalType": "address",
          "name": "arbitrator",
          "type": "address"
        },
        {
          "internalType": "uint256",
          "name": "startDate",
          "type": "uint256"
        },
        {
          "internalType": "uint256",
          "name": "endDate",
          "type": "uint256"
        },
        {
          "internalType": "uint256",
          "name": "amount",
          "type": "uint256"
        },
        {
          "internalType": "enum WMCAgreementManagement.Estado",
          "name": "estado",
          "type": "uint8"
        },
        {
          "internalType": "bool",
          "name": "spaAgree",
          "type": "bool"
        },
        {
          "internalType": "bool",
          "name": "sprAgree",
          "type": "bool"
        }
      ],
      "stateMutability": "view",
      "type": "function"
    },
    {
      "inputs": [],
      "name": "daoTreasury",
      "outputs": [
        {
          "internalType": "address",
          "name": "",
          "type": "address"
        }
      ],
      "stateMutability": "view",
      "type": "function"
    },
    {
      "inputs": [
        {
          "internalType": "uint256",
          "name": "_id",
          "type": "uint256"
        }
      ],
      "name": "finalizeAutomatically",
      "outputs": [],
      "stateMutability": "nonpayable",
      "type": "function"
    },
    {
      "inputs": [],
      "name": "getCurrentTimestamp",
      "outputs": [
        {
          "internalType": "uint256",
          "name": "",
          "type": "uint256"
        }
      ],
      "stateMutability": "view",
      "type": "function"
    },
    {
      "inputs": [
        {
          "internalType": "address",
          "name": "_serviceProvider",
          "type": "address"
        },
        {
          "internalType": "address",
          "name": "_servicePayer",
          "type": "address"
        },
        {
          "internalType": "address",
          "name": "_arbitrator",
          "type": "address"
        },
        {
          "internalType": "uint256",
          "name": "_startDate",
          "type": "uint256"
        },
        {
          "internalType": "uint256",
          "name": "_endDate",
          "type": "uint256"
        },
        {
          "internalType": "uint256",
          "name": "_amount",
          "type": "uint256"
        }
      ],
      "name": "newAgreement",
      "outputs": [
        {
          "internalType": "uint256",
          "name": "",
          "type": "uint256"
        }
      ],
      "stateMutability": "nonpayable",
      "type": "function"
    },
    {
      "inputs": [
        {
          "internalType": "uint256",
          "name": "_id",
          "type": "uint256"
        },
        {
          "internalType": "bool",
          "name": "inFavorOfProvider",
          "type": "bool"
        }
      ],
      "name": "resolveDispute",
      "outputs": [],
      "stateMutability": "nonpayable",
      "type": "function"
    },
    {
      "inputs": [
        {
          "internalType": "uint256",
          "name": "_id",
          "type": "uint256"
        },
        {
          "internalType": "bool",
          "name": "agree",
          "type": "bool"
        }
      ],
      "name": "setAgreement",
      "outputs": [],
      "stateMutability": "nonpayable",
      "type": "function"
    },
    {
      "inputs": [
        {
          "internalType": "uint256",
          "name": "_id",
          "type": "uint256"
        }
      ],
      "name": "updateState",
      "outputs": [],
      "stateMutability": "nonpayable",
      "type": "function"
    },
    {
      "inputs": [],
      "name": "usdcToken",
      "outputs": [
        {
          "internalType": "contract IERC20",
          "name": "",
          "type": "address"
        }
      ],
      "stateMutability": "view",
      "type": "function"
    },
    {
      "inputs": [
        {
          "internalType": "uint256",
          "name": "",
          "type": "uint256"
        }
      ],
      "name": "validArbiters",
      "outputs": [
        {
          "internalType": "address",
          "name": "",
          "type": "address"
        }
      ],
      "stateMutability": "view",
      "type": "function"
    }
  ],
  "bytecode": "0x608060405273ac9adcccd19ea5a05e5a5a5f37c8c02dd9a2ce9c600360006101000a81548173ffffffffffffffffffffffffffffffffffffffff021916908373ffffffffffffffffffffffffffffffffffffffff1602179055503480156200006657600080fd5b5060405162002b1638038062002b1683398181016040528101906200008c9190620002a2565b806000806101000a81548173ffffffffffffffffffffffffffffffffffffffff021916908373ffffffffffffffffffffffffffffffffffffffff1602179055506002730ae67ce895b26bdab093542c8783b985a243e60c9080600181540180825580915050600190039060005260206000200160009091909190916101000a81548173ffffffffffffffffffffffffffffffffffffffff021916908373ffffffffffffffffffffffffffffffffffffffff1602179055506002731bd61554e343f88f23a094ccb22d83031b3f0adb9080600181540180825580915050600190039060005260206000200160009091909190916101000a81548173ffffffffffffffffffffffffffffffffffffffff021916908373ffffffffffffffffffffffffffffffffffffffff160217905550600273b0ea724275bea77959622b58e97a9d26d4b44ea29080600181540180825580915050600190039060005260206000200160009091909190916101000a81548173ffffffffffffffffffffffffffffffffffffffff021916908373ffffffffffffffffffffffffffffffffffffffff16021790555050620002d4565b600080fd5b600073ffffffffffffffffffffffffffffffffffffffff82169050919050565b60006200026a826200023d565b9050919050565b6200027c816200025d565b81146200028857600080fd5b50565b6000815190506200029c8162000271565b92915050565b600060208284031215620002bb57620002ba62000238565b5b6000620002cb848285016200028b565b91505092915050565b61283280620002e46000396000f3fe608060405234801561001057600080fd5b50600436106100a95760003560e01c80636c9230db116100715780636c9230db1461015057806379022a9f1461016e578063bd14de961461018c578063cc8a55e2146101c4578063db0f8526146101e0578063e0c37fa414610210576100a9565b80630b1b0173146100ae57806311eac855146100ca57806334b25ee2146100e85780633d3e74e61461010457806359a9f91814610120575b600080fd5b6100c860048036038101906100c39190611791565b61022c565b005b6100d26103e3565b6040516100df9190611850565b60405180910390f35b61010260048036038101906100fd9190611791565b610407565b005b61011e6004803603810190610119919061186b565b6107b6565b005b61013a6004803603810190610135919061186b565b610a62565b60405161014791906118b9565b60405180910390f35b610158610aa1565b60405161016591906118e3565b60405180910390f35b610176610ab1565b60405161018391906118b9565b60405180910390f35b6101a660048036038101906101a1919061186b565b610ad7565b6040516101bb99989796959493929190611984565b60405180910390f35b6101de60048036038101906101d9919061186b565b610bbc565b005b6101fa60048036038101906101f59190611a3d565b610cec565b60405161020791906118e3565b60405180910390f35b61022a60048036038101906102259190611aca565b6113c6565b005b60006001838154811061024257610241611af7565b5b906000526020600020906007020190508060010160009054906101000a900473ffffffffffffffffffffffffffffffffffffffff1673ffffffffffffffffffffffffffffffffffffffff163373ffffffffffffffffffffffffffffffffffffffff16036102ca57818160060160016101000a81548160ff02191690831515021790555061037e565b8060000160009054906101000a900473ffffffffffffffffffffffffffffffffffffffff1673ffffffffffffffffffffffffffffffffffffffff163373ffffffffffffffffffffffffffffffffffffffff160361034257818160060160026101000a81548160ff02191690831515021790555061037d565b6040517f08c379a000000000000000000000000000000000000000000000000000000000815260040161037490611b83565b60405180910390fd5b5b8060060160019054906101000a900460ff1615806103ab57508060060160029054906101000a900460ff16155b156103de5760038160060160006101000a81548160ff021916908360058111156103d8576103d76118fe565b5b02179055505b505050565b60008054906101000a900473ffffffffffffffffffffffffffffffffffffffff1681565b60006001838154811061041d5761041c611af7565b5b906000526020600020906007020190508060020160009054906101000a900473ffffffffffffffffffffffffffffffffffffffff1673ffffffffffffffffffffffffffffffffffffffff163373ffffffffffffffffffffffffffffffffffffffff16146104bf576040517f08c379a00000000000000000000000000000000000000000000000000000000081526004016104b690611c15565b60405180910390fd5b600360058111156104d3576104d26118fe565b5b8160060160009054906101000a900460ff1660058111156104f7576104f66118fe565b5b14610537576040517f08c379a000000000000000000000000000000000000000000000000000000000815260040161052e90611c81565b60405180910390fd5b81156106745760058160060160006101000a81548160ff02191690836005811115610565576105646118fe565b5b021790555060008054906101000a900473ffffffffffffffffffffffffffffffffffffffff1673ffffffffffffffffffffffffffffffffffffffff1663a9059cbb8260000160009054906101000a900473ffffffffffffffffffffffffffffffffffffffff1683600501546040518363ffffffff1660e01b81526004016105ed929190611ca1565b6020604051808303816000875af115801561060c573d6000803e3d6000fd5b505050506040513d601f19601f820116820180604052508101906106309190611cdf565b61066f576040517f08c379a000000000000000000000000000000000000000000000000000000000815260040161066690611d58565b60405180910390fd5b6107a7565b60048160060160006101000a81548160ff0219169083600581111561069c5761069b6118fe565b5b021790555060008054906101000a900473ffffffffffffffffffffffffffffffffffffffff1673ffffffffffffffffffffffffffffffffffffffff1663a9059cbb8260010160009054906101000a900473ffffffffffffffffffffffffffffffffffffffff1683600501546040518363ffffffff1660e01b8152600401610724929190611ca1565b6020604051808303816000875af1158015610743573d6000803e3d6000fd5b505050506040513d601f19601f820116820180604052508101906107679190611cdf565b6107a6576040517f08c379a000000000000000000000000000000000000000000000000000000000815260040161079d90611dc4565b60405180910390fd5b5b60008160050181905550505050565b6000600182815481106107cc576107cb611af7565b5b9060005260206000209060070201905060006107e7426114bd565b9050600260058111156107fd576107fc6118fe565b5b8260060160009054906101000a900460ff166005811115610821576108206118fe565b5b14610861576040517f08c379a000000000000000000000000000000000000000000000000000000000815260040161085890611e30565b60405180910390fd5b62093a8082600401546108749190611e7f565b8110156108b6576040517f08c379a00000000000000000000000000000000000000000000000000000000081526004016108ad90611f25565b60405180910390fd5b8160060160019054906101000a900460ff1680156108e257508160060160029054906101000a900460ff165b610921576040517f08c379a000000000000000000000000000000000000000000000000000000000815260040161091890611fb7565b60405180910390fd5b60058260060160006101000a81548160ff02191690836005811115610949576109486118fe565b5b021790555060008054906101000a900473ffffffffffffffffffffffffffffffffffffffff1673ffffffffffffffffffffffffffffffffffffffff1663a9059cbb8360000160009054906101000a900473ffffffffffffffffffffffffffffffffffffffff1684600501546040518363ffffffff1660e01b81526004016109d1929190611ca1565b6020604051808303816000875af11580156109f0573d6000803e3d6000fd5b505050506040513d601f19601f82011682018060405250810190610a149190611cdf565b610a53576040517f08c379a0000000000000000000000000000000000000000000000000000000008152600401610a4a90611d58565b60405180910390fd5b60008260050181905550505050565b60028181548110610a7257600080fd5b906000526020600020016000915054906101000a900473ffffffffffffffffffffffffffffffffffffffff1681565b6000610aac426114bd565b905090565b600360009054906101000a900473ffffffffffffffffffffffffffffffffffffffff1681565b60018181548110610ae757600080fd5b90600052602060002090600702016000915090508060000160009054906101000a900473ffffffffffffffffffffffffffffffffffffffff16908060010160009054906101000a900473ffffffffffffffffffffffffffffffffffffffff16908060020160009054906101000a900473ffffffffffffffffffffffffffffffffffffffff16908060030154908060040154908060050154908060060160009054906101000a900460ff16908060060160019054906101000a900460ff16908060060160029054906101000a900460ff16905089565b600060018281548110610bd257610bd1611af7565b5b906000526020600020906007020190506000610bed426114bd565b905060006005811115610c0357610c026118fe565b5b8260060160009054906101000a900460ff166005811115610c2757610c266118fe565b5b148015610c38575081600301548110155b15610c6b5760018260060160006101000a81548160ff02191690836005811115610c6557610c646118fe565b5b02179055505b60016005811115610c7f57610c7e6118fe565b5b8260060160009054906101000a900460ff166005811115610ca357610ca26118fe565b5b148015610cb4575081600401548110155b15610ce75760028260060160006101000a81548160ff02191690836005811115610ce157610ce06118fe565b5b02179055505b505050565b600080610cf8856114bd565b90506000610d05856114bd565b90506000610d12426114bd565b90508873ffffffffffffffffffffffffffffffffffffffff168a73ffffffffffffffffffffffffffffffffffffffff1603610d82576040517f08c379a0000000000000000000000000000000000000000000000000000000008152600401610d7990612049565b60405180910390fd5b80831015610dc5576040517f08c379a0000000000000000000000000000000000000000000000000000000008152600401610dbc906120db565b60405180910390fd5b62093a8081610dd49190611e7f565b831115610e16576040517f08c379a0000000000000000000000000000000000000000000000000000000008152600401610e0d9061216d565b60405180910390fd5b82821015610e59576040517f08c379a0000000000000000000000000000000000000000000000000000000008152600401610e50906121ff565b60405180910390fd5b60008511610e9c576040517f08c379a0000000000000000000000000000000000000000000000000000000008152600401610e9390612291565b60405180910390fd5b610ea5886114e0565b610ee4576040517f08c379a0000000000000000000000000000000000000000000000000000000008152600401610edb906122fd565b60405180910390fd5b620f42406216e360610ef69190611e7f565b8511610f37576040517f08c379a0000000000000000000000000000000000000000000000000000000008152600401610f2e9061238f565b60405180910390fd5b60008054906101000a900473ffffffffffffffffffffffffffffffffffffffff1673ffffffffffffffffffffffffffffffffffffffff166323b872dd3330886040518463ffffffff1660e01b8152600401610f94939291906123af565b6020604051808303816000875af1925050508015610fd057506040513d601f19601f82011682018060405250810190610fcd9190611cdf565b60015b61100f576040517f08c379a000000000000000000000000000000000000000000000000000000000815260040161100690612432565b60405180910390fd5b8061104f576040517f08c379a00000000000000000000000000000000000000000000000000000000081526004016110469061249e565b60405180910390fd5b5061105c6216e360611588565b60008054906101000a900473ffffffffffffffffffffffffffffffffffffffff1673ffffffffffffffffffffffffffffffffffffffff1663a9059cbb600360009054906101000a900473ffffffffffffffffffffffffffffffffffffffff16620f42406040518363ffffffff1660e01b81526004016110dc929190611ca1565b6020604051808303816000875af11580156110fb573d6000803e3d6000fd5b505050506040513d601f19601f8201168201806040525081019061111f9190611cdf565b61115e576040517f08c379a000000000000000000000000000000000000000000000000000000000815260040161115590612530565b60405180910390fd5b60016040518061012001604052808c73ffffffffffffffffffffffffffffffffffffffff1681526020018b73ffffffffffffffffffffffffffffffffffffffff1681526020018a73ffffffffffffffffffffffffffffffffffffffff168152602001858152602001848152602001620f42406216e360896111df9190612550565b6111e99190612550565b815260200160006005811115611202576112016118fe565b5b815260200160011515815260200160011515815250908060018154018082558091505060019003906000526020600020906007020160009091909190915060008201518160000160006101000a81548173ffffffffffffffffffffffffffffffffffffffff021916908373ffffffffffffffffffffffffffffffffffffffff16021790555060208201518160010160006101000a81548173ffffffffffffffffffffffffffffffffffffffff021916908373ffffffffffffffffffffffffffffffffffffffff16021790555060408201518160020160006101000a81548173ffffffffffffffffffffffffffffffffffffffff021916908373ffffffffffffffffffffffffffffffffffffffff160217905550606082015181600301556080820151816004015560a0820151816005015560c08201518160060160006101000a81548160ff0219169083600581111561135e5761135d6118fe565b5b021790555060e08201518160060160016101000a81548160ff0219169083151502179055506101008201518160060160026101000a81548160ff0219169083151502179055505050600180805490506113b79190612550565b93505050509695505050505050565b6113cf336114e0565b61140e576040517f08c379a0000000000000000000000000000000000000000000000000000000008152600401611405906125f6565b60405180910390fd5b611417816114e0565b15611457576040517f08c379a000000000000000000000000000000000000000000000000000000000815260040161144e90612662565b60405180910390fd5b6002819080600181540180825580915050600190039060005260206000200160009091909190916101000a81548173ffffffffffffffffffffffffffffffffffffffff021916908373ffffffffffffffffffffffffffffffffffffffff16021790555050565b60006201518080836114cf91906126b1565b6114d991906126e2565b9050919050565b600080600090505b60028054905081101561157d578273ffffffffffffffffffffffffffffffffffffffff16600282815481106115205761151f611af7565b5b9060005260206000200160009054906101000a900473ffffffffffffffffffffffffffffffffffffffff1673ffffffffffffffffffffffffffffffffffffffff1603611570576001915050611583565b80806001019150506114e8565b50600090505b919050565b60006002805490509050600081116115d5576040517f08c379a00000000000000000000000000000000000000000000000000000000081526004016115cc90612770565b60405180910390fd5b600081836115e391906126b1565b905060005b828110156117185760008054906101000a900473ffffffffffffffffffffffffffffffffffffffff1673ffffffffffffffffffffffffffffffffffffffff1663a9059cbb600283815481106116405761163f611af7565b5b9060005260206000200160009054906101000a900473ffffffffffffffffffffffffffffffffffffffff16846040518363ffffffff1660e01b8152600401611689929190611ca1565b6020604051808303816000875af11580156116a8573d6000803e3d6000fd5b505050506040513d601f19601f820116820180604052508101906116cc9190611cdf565b61170b576040517f08c379a0000000000000000000000000000000000000000000000000000000008152600401611702906127dc565b60405180910390fd5b80806001019150506115e8565b50505050565b600080fd5b6000819050919050565b61173681611723565b811461174157600080fd5b50565b6000813590506117538161172d565b92915050565b60008115159050919050565b61176e81611759565b811461177957600080fd5b50565b60008135905061178b81611765565b92915050565b600080604083850312156117a8576117a761171e565b5b60006117b685828601611744565b92505060206117c78582860161177c565b9150509250929050565b600073ffffffffffffffffffffffffffffffffffffffff82169050919050565b6000819050919050565b600061181661181161180c846117d1565b6117f1565b6117d1565b9050919050565b6000611828826117fb565b9050919050565b600061183a8261181d565b9050919050565b61184a8161182f565b82525050565b60006020820190506118656000830184611841565b92915050565b6000602082840312156118815761188061171e565b5b600061188f84828501611744565b91505092915050565b60006118a3826117d1565b9050919050565b6118b381611898565b82525050565b60006020820190506118ce60008301846118aa565b92915050565b6118dd81611723565b82525050565b60006020820190506118f860008301846118d4565b92915050565b7f4e487b7100000000000000000000000000000000000000000000000000000000600052602160045260246000fd5b6006811061193e5761193d6118fe565b5b50565b600081905061194f8261192d565b919050565b600061195f82611941565b9050919050565b61196f81611954565b82525050565b61197e81611759565b82525050565b60006101208201905061199a600083018c6118aa565b6119a7602083018b6118aa565b6119b4604083018a6118aa565b6119c160608301896118d4565b6119ce60808301886118d4565b6119db60a08301876118d4565b6119e860c0830186611966565b6119f560e0830185611975565b611a03610100830184611975565b9a9950505050505050505050565b611a1a81611898565b8114611a2557600080fd5b50565b600081359050611a3781611a11565b92915050565b60008060008060008060c08789031215611a5a57611a5961171e565b5b6000611a6889828a01611a28565b9650506020611a7989828a01611a28565b9550506040611a8a89828a01611a28565b9450506060611a9b89828a01611744565b9350506080611aac89828a01611744565b92505060a0611abd89828a01611744565b9150509295509295509295565b600060208284031215611ae057611adf61171e565b5b6000611aee84828501611a28565b91505092915050565b7f4e487b7100000000000000000000000000000000000000000000000000000000600052603260045260246000fd5b600082825260208201905092915050565b7f4e6f206175746f72697a61646f00000000000000000000000000000000000000600082015250565b6000611b6d600d83611b26565b9150611b7882611b37565b602082019050919050565b60006020820190508181036000830152611b9c81611b60565b9050919050565b7f536f6c6f20656c206172626974726f20617369676e61646f207075656465207260008201527f65736f6c766572206c6120646973707574610000000000000000000000000000602082015250565b6000611bff603283611b26565b9150611c0a82611ba3565b604082019050919050565b60006020820190508181036000830152611c2e81611bf2565b9050919050565b7f4e6f2068617920646973707574612070617261207265736f6c76657200000000600082015250565b6000611c6b601c83611b26565b9150611c7682611c35565b602082019050919050565b60006020820190508181036000830152611c9a81611c5e565b9050919050565b6000604082019050611cb660008301856118aa565b611cc360208301846118d4565b9392505050565b600081519050611cd981611765565b92915050565b600060208284031215611cf557611cf461171e565b5b6000611d0384828501611cca565b91505092915050565b7f5472616e73666572656e63696120616c205350522066616c6c69646100000000600082015250565b6000611d42601c83611b26565b9150611d4d82611d0c565b602082019050919050565b60006020820190508181036000830152611d7181611d35565b9050919050565b7f5265656d626f6c736f20616c205350412066616c6c69646f0000000000000000600082015250565b6000611dae601883611b26565b9150611db982611d78565b602082019050919050565b60006020820190508181036000830152611ddd81611da1565b9050919050565b7f456c206163756572646f206e6f206573746120656e2046696e616c697a61646f600082015250565b6000611e1a602083611b26565b9150611e2582611de4565b602082019050919050565b60006020820190508181036000830152611e4981611e0d565b9050919050565b7f4e487b7100000000000000000000000000000000000000000000000000000000600052601160045260246000fd5b6000611e8a82611723565b9150611e9583611723565b9250828201905080821115611ead57611eac611e50565b5b92915050565b7f4e6f2068612070617361646f20656c20706572696f646f20646520646973707560008201527f7461000000000000000000000000000000000000000000000000000000000000602082015250565b6000611f0f602283611b26565b9150611f1a82611eb3565b604082019050919050565b60006020820190508181036000830152611f3e81611f02565b9050919050565b7f416d6261732070617274657320646562656e206573746172206465206163756560008201527f72646f0000000000000000000000000000000000000000000000000000000000602082015250565b6000611fa1602383611b26565b9150611fac82611f45565b604082019050919050565b60006020820190508181036000830152611fd081611f94565b9050919050565b7f4c61732077616c6c6574732064652070726f766565646f72207920706167616460008201527f6f72206e6f2070756564656e2073657220696775616c65732e00000000000000602082015250565b6000612033603983611b26565b915061203e82611fd7565b604082019050919050565b6000602082019050818103600083015261206281612026565b9050919050565b7f466563686120646520696e6963696f20646562652073657220686f79206f206d60008201527f61796f7200000000000000000000000000000000000000000000000000000000602082015250565b60006120c5602483611b26565b91506120d082612069565b604082019050919050565b600060208201905081810360008301526120f4816120b8565b9050919050565b7f466563686120646520696e6963696f206e6f20707565646520736572206d617960008201527f6f72206120756e612073656d616e6120646573646520686f7900000000000000602082015250565b6000612157603983611b26565b9150612162826120fb565b604082019050919050565b600060208201905081810360008301526121868161214a565b9050919050565b7f46656368612064652066696e206465626520736572206d61796f72206f20696760008201527f75616c2061206c6120646520696e6963696f0000000000000000000000000000602082015250565b60006121e9603283611b26565b91506121f48261218d565b604082019050919050565b60006020820190508181036000830152612218816121dc565b9050919050565b7f456c2076616c6f722064656c20736572766963696f206465626520736572206d60008201527f61796f7220612030000000000000000000000000000000000000000000000000602082015250565b600061227b602883611b26565b91506122868261221f565b604082019050919050565b600060208201905081810360008301526122aa8161226e565b9050919050565b7f456c206172626974726f206e6f2065732076616c69646f000000000000000000600082015250565b60006122e7601783611b26565b91506122f2826122b1565b602082019050919050565b60006020820190508181036000830152612316816122da565b9050919050565b7f4d6f6e746f20696e737566696369656e7465207061726120637562726972206660008201527f6565732e00000000000000000000000000000000000000000000000000000000602082015250565b6000612379602483611b26565b91506123848261231d565b604082019050919050565b600060208201905081810360008301526123a88161236c565b9050919050565b60006060820190506123c460008301866118aa565b6123d160208301856118aa565b6123de60408301846118d4565b949350505050565b7f4572726f7220616c207472616e73666572697220555344430000000000000000600082015250565b600061241c601883611b26565b9150612427826123e6565b602082019050919050565b6000602082019050818103600083015261244b8161240f565b9050919050565b7f5472616e73666572656e63696120646520555344432066616c6c696461000000600082015250565b6000612488601d83611b26565b915061249382612452565b602082019050919050565b600060208201905081810360008301526124b78161247b565b9050919050565b7f5472616e73666572656e63696120616c207465736f726f2044414f2066616c6c60008201527f6964612e00000000000000000000000000000000000000000000000000000000602082015250565b600061251a602483611b26565b9150612525826124be565b604082019050919050565b600060208201905081810360008301526125498161250d565b9050919050565b600061255b82611723565b915061256683611723565b925082820390508181111561257e5761257d611e50565b5b92915050565b7f536f6c6f20756e206172626974726f2076616c69646f2070756564652061677260008201527f65676172206e7565766f73206172626974726f732e0000000000000000000000602082015250565b60006125e0603583611b26565b91506125eb82612584565b604082019050919050565b6000602082019050818103600083015261260f816125d3565b9050919050565b7f456c206172626974726f2079612065737461207265676973747261646f2e0000600082015250565b600061264c601e83611b26565b915061265782612616565b602082019050919050565b6000602082019050818103600083015261267b8161263f565b9050919050565b7f4e487b7100000000000000000000000000000000000000000000000000000000600052601260045260246000fd5b60006126bc82611723565b91506126c783611723565b9250826126d7576126d6612682565b5b828204905092915050565b60006126ed82611723565b91506126f883611723565b925082820261270681611723565b9150828204841483151761271d5761271c611e50565b5b5092915050565b7f4e6f20686179206172626974726f732076616c69646f732e0000000000000000600082015250565b600061275a601883611b26565b915061276582612724565b602082019050919050565b600060208201905081810360008301526127898161274d565b9050919050565b7f5472616e73666572656e6369612061206172626974726f2066616c6c6964612e600082015250565b60006127c6602083611b26565b91506127d182612790565b602082019050919050565b600060208201905081810360008301526127f5816127b9565b905091905056fea26469706673582212200178a7b8a21d9d51040ef15be21c18b1e1d7551866e0b5a3ea70ab76706fa29864736f6c63430008180033",
  "linkReferences": {},
  "deployedLinkReferences": {}
}